{
  "_format": "hh-sol-artifact-1",
  "contractName": "Genesis",
  "sourceName": "src/contracts/Genesis.sol",
  "abi": [
    {
      "inputs": [
        {
          "internalType": "uint256",
          "name": "_projectTax",
          "type": "uint256"
        }
      ],
      "stateMutability": "nonpayable",
      "type": "constructor"
    },
    {
      "anonymous": false,
      "inputs": [
        {
          "indexed": false,
          "internalType": "uint256",
          "name": "id",
          "type": "uint256"
        },
        {
          "indexed": false,
          "internalType": "string",
          "name": "actionType",
          "type": "string"
        },
        {
          "indexed": true,
          "internalType": "address",
          "name": "executor",
          "type": "address"
        },
        {
          "indexed": false,
          "internalType": "uint256",
          "name": "timestamp",
          "type": "uint256"
        }
      ],
      "name": "Action",
      "type": "event"
    },
    {
      "inputs": [
        {
          "internalType": "uint256",
          "name": "id",
          "type": "uint256"
        }
      ],
      "name": "backProject",
      "outputs": [
        {
          "internalType": "bool",
          "name": "",
          "type": "bool"
        }
      ],
      "stateMutability": "payable",
      "type": "function"
    },
    {
      "inputs": [],
      "name": "balance",
      "outputs": [
        {
          "internalType": "uint256",
          "name": "",
          "type": "uint256"
        }
      ],
      "stateMutability": "view",
      "type": "function"
    },
    {
      "inputs": [
        {
          "internalType": "uint256",
          "name": "_taxPct",
          "type": "uint256"
        }
      ],
      "name": "changeTax",
      "outputs": [],
      "stateMutability": "nonpayable",
      "type": "function"
    },
    {
      "inputs": [
        {
          "internalType": "string",
          "name": "title",
          "type": "string"
        },
        {
          "internalType": "string",
          "name": "description",
          "type": "string"
        },
        {
          "internalType": "string",
          "name": "imageURL",
          "type": "string"
        },
        {
          "internalType": "uint256",
          "name": "cost",
          "type": "uint256"
        },
        {
          "internalType": "uint256",
          "name": "expiresAt",
          "type": "uint256"
        }
      ],
      "name": "createProject",
      "outputs": [
        {
          "internalType": "bool",
          "name": "",
          "type": "bool"
        }
      ],
      "stateMutability": "nonpayable",
      "type": "function"
    },
    {
      "inputs": [
        {
          "internalType": "uint256",
          "name": "id",
          "type": "uint256"
        }
      ],
      "name": "deleteProject",
      "outputs": [
        {
          "internalType": "bool",
          "name": "",
          "type": "bool"
        }
      ],
      "stateMutability": "nonpayable",
      "type": "function"
    },
    {
      "inputs": [
        {
          "internalType": "uint256",
          "name": "id",
          "type": "uint256"
        }
      ],
      "name": "getBackers",
      "outputs": [
        {
          "components": [
            {
              "internalType": "address",
              "name": "owner",
              "type": "address"
            },
            {
              "internalType": "uint256",
              "name": "contribution",
              "type": "uint256"
            },
            {
              "internalType": "uint256",
              "name": "timestamp",
              "type": "uint256"
            },
            {
              "internalType": "bool",
              "name": "refunded",
              "type": "bool"
            }
          ],
          "internalType": "struct Genesis.backerStruct[]",
          "name": "",
          "type": "tuple[]"
        }
      ],
      "stateMutability": "view",
      "type": "function"
    },
    {
      "inputs": [
        {
          "internalType": "uint256",
          "name": "id",
          "type": "uint256"
        }
      ],
      "name": "getProject",
      "outputs": [
        {
          "components": [
            {
              "internalType": "uint256",
              "name": "id",
              "type": "uint256"
            },
            {
              "internalType": "address",
              "name": "owner",
              "type": "address"
            },
            {
              "internalType": "string",
              "name": "title",
              "type": "string"
            },
            {
              "internalType": "string",
              "name": "description",
              "type": "string"
            },
            {
              "internalType": "string",
              "name": "imageURL",
              "type": "string"
            },
            {
              "internalType": "uint256",
              "name": "cost",
              "type": "uint256"
            },
            {
              "internalType": "uint256",
              "name": "raised",
              "type": "uint256"
            },
            {
              "internalType": "uint256",
              "name": "timestamp",
              "type": "uint256"
            },
            {
              "internalType": "uint256",
              "name": "expiresAt",
              "type": "uint256"
            },
            {
              "internalType": "uint256",
              "name": "backers",
              "type": "uint256"
            },
            {
              "internalType": "enum Genesis.statusEnum",
              "name": "status",
              "type": "uint8"
            }
          ],
          "internalType": "struct Genesis.projectStruct",
          "name": "",
          "type": "tuple"
        }
      ],
      "stateMutability": "view",
      "type": "function"
    },
    {
      "inputs": [],
      "name": "getProjects",
      "outputs": [
        {
          "components": [
            {
              "internalType": "uint256",
              "name": "id",
              "type": "uint256"
            },
            {
              "internalType": "address",
              "name": "owner",
              "type": "address"
            },
            {
              "internalType": "string",
              "name": "title",
              "type": "string"
            },
            {
              "internalType": "string",
              "name": "description",
              "type": "string"
            },
            {
              "internalType": "string",
              "name": "imageURL",
              "type": "string"
            },
            {
              "internalType": "uint256",
              "name": "cost",
              "type": "uint256"
            },
            {
              "internalType": "uint256",
              "name": "raised",
              "type": "uint256"
            },
            {
              "internalType": "uint256",
              "name": "timestamp",
              "type": "uint256"
            },
            {
              "internalType": "uint256",
              "name": "expiresAt",
              "type": "uint256"
            },
            {
              "internalType": "uint256",
              "name": "backers",
              "type": "uint256"
            },
            {
              "internalType": "enum Genesis.statusEnum",
              "name": "status",
              "type": "uint8"
            }
          ],
          "internalType": "struct Genesis.projectStruct[]",
          "name": "",
          "type": "tuple[]"
        }
      ],
      "stateMutability": "view",
      "type": "function"
    },
    {
      "inputs": [],
      "name": "owner",
      "outputs": [
        {
          "internalType": "address",
          "name": "",
          "type": "address"
        }
      ],
      "stateMutability": "view",
      "type": "function"
    },
    {
      "inputs": [
        {
          "internalType": "uint256",
          "name": "id",
          "type": "uint256"
        }
      ],
      "name": "payOutProject",
      "outputs": [
        {
          "internalType": "bool",
          "name": "",
          "type": "bool"
        }
      ],
      "stateMutability": "nonpayable",
      "type": "function"
    },
    {
      "inputs": [],
      "name": "projectCount",
      "outputs": [
        {
          "internalType": "uint256",
          "name": "",
          "type": "uint256"
        }
      ],
      "stateMutability": "view",
      "type": "function"
    },
    {
      "inputs": [
        {
          "internalType": "uint256",
          "name": "",
          "type": "uint256"
        }
      ],
      "name": "projectExist",
      "outputs": [
        {
          "internalType": "bool",
          "name": "",
          "type": "bool"
        }
      ],
      "stateMutability": "view",
      "type": "function"
    },
    {
      "inputs": [],
      "name": "projectTax",
      "outputs": [
        {
          "internalType": "uint256",
          "name": "",
          "type": "uint256"
        }
      ],
      "stateMutability": "view",
      "type": "function"
    },
    {
      "inputs": [
        {
          "internalType": "uint256",
          "name": "id",
          "type": "uint256"
        }
      ],
      "name": "requestRefund",
      "outputs": [
        {
          "internalType": "bool",
          "name": "",
          "type": "bool"
        }
      ],
      "stateMutability": "nonpayable",
      "type": "function"
    },
    {
      "inputs": [],
      "name": "stats",
      "outputs": [
        {
          "internalType": "uint256",
          "name": "totalProjects",
          "type": "uint256"
        },
        {
          "internalType": "uint256",
          "name": "totalBacking",
          "type": "uint256"
        },
        {
          "internalType": "uint256",
          "name": "totalDonations",
          "type": "uint256"
        }
      ],
      "stateMutability": "view",
      "type": "function"
    },
    {
      "inputs": [
        {
          "internalType": "uint256",
          "name": "id",
          "type": "uint256"
        },
        {
          "internalType": "string",
          "name": "title",
          "type": "string"
        },
        {
          "internalType": "string",
          "name": "description",
          "type": "string"
        },
        {
          "internalType": "string",
          "name": "imageURL",
          "type": "string"
        },
        {
          "internalType": "uint256",
          "name": "expiresAt",
          "type": "uint256"
        }
      ],
      "name": "updateProject",
      "outputs": [
        {
          "internalType": "bool",
          "name": "",
          "type": "bool"
        }
      ],
      "stateMutability": "nonpayable",
      "type": "function"
    }
  ],
  "bytecode": "0x608060405234801561001057600080fd5b5060405161237938038061237983398101604081905261002f91610049565b600080546001600160a01b03191633179055600155610062565b60006020828403121561005b57600080fd5b5051919050565b612308806100716000396000f3fe6080604052600436106100f35760003560e01c8063a4b2409e1161008a578063d24cd3ec11610059578063d24cd3ec146102b1578063d80528ae146102c7578063dcc6012814610301578063f0f3f2c81461032357600080fd5b8063a4b2409e1461022e578063b531dcba1461024e578063b69ef8a81461026e578063c9168b721461028457600080fd5b80638593054b116100c65780638593054b146101935780638da5cb5b146101c35780639a3fa8c7146101fb5780639f39a1941461021b57600080fd5b8063056c29ee146100f857806336fbad261461012d5780633e45c8af146101515780634cd0cb2814610173575b600080fd5b34801561010457600080fd5b50610118610113366004611de6565b610350565b60405190151581526020015b60405180910390f35b34801561013957600080fd5b5061014360025481565b604051908152602001610124565b34801561015d57600080fd5b5061017161016c366004611e80565b610773565b005b34801561017f57600080fd5b5061011861018e366004611e80565b6107c8565b34801561019f57600080fd5b506101186101ae366004611e80565b600a6020526000908152604090205460ff1681565b3480156101cf57600080fd5b506000546101e3906001600160a01b031681565b6040516001600160a01b039091168152602001610124565b34801561020757600080fd5b50610118610216366004611e99565b61097d565b610118610229366004611e80565b610c22565b34801561023a57600080fd5b50610118610249366004611e80565b611008565b34801561025a57600080fd5b50610118610269366004611e80565b61113a565b34801561027a57600080fd5b5061014360035481565b34801561029057600080fd5b506102a461029f366004611e80565b61129c565b6040516101249190611f33565b3480156102bd57600080fd5b5061014360015481565b3480156102d357600080fd5b506004546005546006546102e692919083565b60408051938452602084019290925290820152606001610124565b34801561030d57600080fd5b5061031661133e565b60405161012491906120ec565b34801561032f57600080fd5b5061034361033e366004611e80565b6115d9565b604051610124919061214e565b60008086511161039f5760405162461bcd60e51b81526020600482015260156024820152745469746c652063616e6e6f7420626520656d70747960581b60448201526064015b60405180910390fd5b60008551116103f05760405162461bcd60e51b815260206004820152601b60248201527f4465736372697074696f6e2063616e6e6f7420626520656d70747900000000006044820152606401610396565b600084511161043c5760405162461bcd60e51b8152602060048201526018602482015277496d61676555524c2063616e6e6f7420626520656d70747960401b6044820152606401610396565b610444611c37565b600254815233602080830191825260408301898152606084018990526080840188905260a084018790524260e085015261010084018690526007805460018101825560009190915284517fa66cc928b5edb82af9bd49922954155ab7b0942694bea4ce44661d9a8736c688600b90920291820190815593517fa66cc928b5edb82af9bd49922954155ab7b0942694bea4ce44661d9a8736c689820180546001600160a01b0319166001600160a01b0390921691909117905590518051859493610531937fa66cc928b5edb82af9bd49922954155ab7b0942694bea4ce44661d9a8736c68a01920190611caa565b506060820151805161054d916003840191602090910190611caa565b5060808201518051610569916004840191602090910190611caa565b5060a0820151600582015560c0820151600682015560e0820151600782015561010082015160088201556101208201516009820155610140820151600a8201805460ff191660018360048111156105c2576105c2611fef565b021790555050600280546000908152600a602090815260408083208054600160ff1990911681179091553384526008835281842080548083018255908552938390208751600b909502019384558683015190840180546001600160a01b0319166001600160a01b039092169190911790558501518051869550929361064f93908501929190910190611caa565b506060820151805161066b916003840191602090910190611caa565b5060808201518051610687916004840191602090910190611caa565b5060a0820151600582015560c0820151600682015560e0820151600782015561010082015160088201556101208201516009820155610140820151600a8201805460ff191660018360048111156106e0576106e0611fef565b021790555050506001600460000160008282546106fd919061217e565b90915550506002805433916000805160206122b38339815191529190600061072483612196565b9091555060408051918252606060208301819052600f908301526e141493d29150d50810d49150551151608a1b6080830152429082015260a00160405180910390a25060019695505050505050565b6000546001600160a01b031633146107c35760405162461bcd60e51b81526020600482015260136024820152724f776e6572207265736572766564206f6e6c7960681b6044820152606401610396565b600155565b6000818152600a602052604081205460ff166107f65760405162461bcd60e51b8152600401610396906121b1565b60006007838154811061080b5761080b6121dc565b60009182526020909120600a600b90920201015460ff16600481111561083357610833611fef565b1461087b5760405162461bcd60e51b8152602060048201526018602482015277141c9bda9958dd081b9bc81b1bdb99d95c881bdc195b995960421b6044820152606401610396565b6007828154811061088e5761088e6121dc565b60009182526020909120600b90910201600101546001600160a01b03163314806108c257506000546001600160a01b031633145b6108de5760405162461bcd60e51b8152600401610396906121f2565b6003600783815481106108f3576108f36121dc565b60009182526020909120600a600b9092020101805460ff1916600183600481111561092057610920611fef565b021790555060408051838152606060208201819052600f908201526e141493d29150d50811115311551151608a1b60808201524281830152905133916000805160206122b3833981519152919081900360a00190a2506001919050565b600060078681548110610992576109926121dc565b60009182526020909120600b90910201600101546001600160a01b031633146109cd5760405162461bcd60e51b8152600401610396906121f2565b6000868152600a602052604090205460ff166109fb5760405162461bcd60e51b8152600401610396906121b1565b6000855111610a445760405162461bcd60e51b81526020600482015260156024820152745469746c652063616e6e6f7420626520656d70747960581b6044820152606401610396565b6000845111610a955760405162461bcd60e51b815260206004820152601b60248201527f4465736372697074696f6e2063616e6e6f7420626520656d70747900000000006044820152606401610396565b6000835111610ae15760405162461bcd60e51b8152602060048201526018602482015277496d61676555524c2063616e6e6f7420626520656d70747960401b6044820152606401610396565b8460078781548110610af557610af56121dc565b90600052602060002090600b02016002019080519060200190610b19929190611caa565b508360078781548110610b2e57610b2e6121dc565b90600052602060002090600b02016003019080519060200190610b52929190611caa565b508260078781548110610b6757610b676121dc565b90600052602060002090600b02016004019080519060200190610b8b929190611caa565b508160078781548110610ba057610ba06121dc565b90600052602060002090600b020160080181905550336001600160a01b03166000805160206122b38339815191528742604051610c0e929190918252606060208301819052600f908301526e141493d29150d50815541110551151608a1b6080830152604082015260a00190565b60405180910390a250600195945050505050565b6000803411610c735760405162461bcd60e51b815260206004820152601f60248201527f4574686572206d7573742062652067726561746572207468616e207a65726f006044820152606401610396565b6000828152600a602052604090205460ff16610ca15760405162461bcd60e51b8152600401610396906121b1565b600060078381548110610cb657610cb66121dc565b60009182526020909120600a600b90920201015460ff166004811115610cde57610cde611fef565b14610d265760405162461bcd60e51b8152602060048201526018602482015277141c9bda9958dd081b9bc81b1bdb99d95c881bdc195b995960421b6044820152606401610396565b600160046001016000828254610d3c919061217e565b909155505060068054349190600090610d5690849061217e565b925050819055503460078381548110610d7157610d716121dc565b90600052602060002090600b02016006016000828254610d91919061217e565b92505081905550600160078381548110610dad57610dad6121dc565b90600052602060002090600b02016009016000828254610dcd919061217e565b9091555050600082815260096020908152604080832081516080808201845233808352348387019081524284870181815260608087018b8152885460018082018b55998d529b8b902097516004909c0290970180546001600160a01b0319166001600160a01b03909c169b909b178b559251968a01969096559451600289015592516003909701805460ff1916971515979097179096558351888152948501829052600e918501919091526d141493d29150d508109050d2d15160921b90840152908201526000805160206122b38339815191529060a00160405180910390a260078281548110610ec057610ec06121dc565b90600052602060002090600b02016005015460078381548110610ee557610ee56121dc565b90600052602060002090600b02016006015410610f8657600160078381548110610f1157610f116121dc565b60009182526020909120600a600b9092020101805460ff19166001836004811115610f3e57610f3e611fef565b021790555060078281548110610f5657610f566121dc565b90600052602060002090600b02016006015460036000828254610f79919061217e565b9091555060019392505050565b60078281548110610f9957610f996121dc565b90600052602060002090600b020160080154421061100057600260078381548110610fc657610fc66121dc565b60009182526020909120600a600b9092020101805460ff19166001836004811115610ff357610ff3611fef565b0217905550600192915050565b506001919050565b600060026007838154811061101f5761101f6121dc565b60009182526020909120600a600b90920201015460ff16600481111561104757611047611fef565b14158061108f5750600360078381548110611064576110646121dc565b60009182526020909120600a600b90920201015460ff16600481111561108c5761108c611fef565b14155b6110ea5760405162461bcd60e51b815260206004820152602660248201527f50726f6a656374206e6f74206d61726b656420617320726576657274206f722060448201526564656c65746560d01b6064820152608401610396565b6002600783815481106110ff576110ff6121dc565b60009182526020909120600a600b9092020101805460ff1916600183600481111561112c5761112c611fef565b021790555061100082611895565b6000600160078381548110611151576111516121dc565b60009182526020909120600a600b90920201015460ff16600481111561117957611179611fef565b146111c65760405162461bcd60e51b815260206004820152601a60248201527f50726f6a656374206e6f206c6f6e67657220415050524f5645440000000000006044820152606401610396565b600354600783815481106111dc576111dc6121dc565b90600052602060002090600b02016006015410156112305760405162461bcd60e51b8152602060048201526011602482015270125b9cdd59999a58da595b9d08119d5b99607a1b6044820152606401610396565b60078281548110611243576112436121dc565b60009182526020909120600b90910201600101546001600160a01b031633148061127757506000546001600160a01b031633145b6112935760405162461bcd60e51b8152600401610396906121f2565b61100082611a42565b606060096000838152602001908152602001600020805480602002602001604051908101604052809291908181526020016000905b82821015611333576000848152602090819020604080516080810182526004860290920180546001600160a01b03168352600180820154848601526002820154928401929092526003015460ff161515606083015290835290920191016112d1565b505050509050919050565b60606007805480602002602001604051908101604052809291908181526020016000905b828210156115d05760008481526020908190206040805161016081018252600b86029092018054835260018101546001600160a01b031693830193909352600283018054929392918401916113b69061221f565b80601f01602080910402602001604051908101604052809291908181526020018280546113e29061221f565b801561142f5780601f106114045761010080835404028352916020019161142f565b820191906000526020600020905b81548152906001019060200180831161141257829003601f168201915b505050505081526020016003820180546114489061221f565b80601f01602080910402602001604051908101604052809291908181526020018280546114749061221f565b80156114c15780601f10611496576101008083540402835291602001916114c1565b820191906000526020600020905b8154815290600101906020018083116114a457829003601f168201915b505050505081526020016004820180546114da9061221f565b80601f01602080910402602001604051908101604052809291908181526020018280546115069061221f565b80156115535780601f1061152857610100808354040283529160200191611553565b820191906000526020600020905b81548152906001019060200180831161153657829003601f168201915b505050918352505060058201546020820152600682015460408201526007820154606082015260088201546080820152600982015460a0820152600a82015460c09091019060ff1660048111156115ac576115ac611fef565b60048111156115bd576115bd611fef565b8152505081526020019060010190611362565b50505050905090565b6115e1611c37565b6000828152600a602052604090205460ff1661160f5760405162461bcd60e51b8152600401610396906121b1565b60078281548110611622576116226121dc565b90600052602060002090600b020160405180610160016040529081600082015481526020016001820160009054906101000a90046001600160a01b03166001600160a01b03166001600160a01b031681526020016002820180546116859061221f565b80601f01602080910402602001604051908101604052809291908181526020018280546116b19061221f565b80156116fe5780601f106116d3576101008083540402835291602001916116fe565b820191906000526020600020905b8154815290600101906020018083116116e157829003601f168201915b505050505081526020016003820180546117179061221f565b80601f01602080910402602001604051908101604052809291908181526020018280546117439061221f565b80156117905780601f1061176557610100808354040283529160200191611790565b820191906000526020600020905b81548152906001019060200180831161177357829003601f168201915b505050505081526020016004820180546117a99061221f565b80601f01602080910402602001604051908101604052809291908181526020018280546117d59061221f565b80156118225780601f106117f757610100808354040283529160200191611822565b820191906000526020600020905b81548152906001019060200180831161180557829003601f168201915b505050918352505060058201546020820152600682015460408201526007820154606082015260088201546080820152600982015460a0820152600a82015460c09091019060ff16600481111561187b5761187b611fef565b600481111561188c5761188c611fef565b90525092915050565b60005b600082815260096020526040902054811015611a3e5760008281526009602052604090208054829081106118ce576118ce6121dc565b60009182526020909120600490910201546001600160a01b03163314801561192a57506000828152600960205260409020805482908110611911576119116121dc565b600091825260209091206003600490920201015460ff16155b15611a2c57600082815260096020526040812080548390811061194f5761194f6121dc565b6000918252602080832060049092029091015485835260099091526040822080546001600160a01b039092169350908490811061198e5761198e6121dc565b906000526020600020906004020160010154905060016009600086815260200190815260200160002084815481106119c8576119c86121dc565b60009182526020909120600490910201600301805460ff19169115159190911790556119f48282611bd2565b600160046001016000828254611a0a919061225a565b909155505060068054829190600090611a2490849061225a565b909155505050505b80611a3681612196565b915050611898565b5050565b6000606460015460078481548110611a5c57611a5c6121dc565b90600052602060002090600b020160060154611a789190612271565b611a829190612290565b90506000606460015483611a969190612271565b611aa09190612290565b9050600460078481548110611ab757611ab76121dc565b60009182526020909120600a600b9092020101805460ff19166001836004811115611ae457611ae4611fef565b0217905550611b2260078481548110611aff57611aff6121dc565b600091825260209091206001600b9092020101546001600160a01b031682611bd2565b600054611b41906001600160a01b0316611b3c838561225a565b611bd2565b60078381548110611b5457611b546121dc565b90600052602060002090600b02016006015460036000828254611b77919061225a565b9091555050604080518481526060602082018190526010908201526f141493d29150d508141052510813d55560821b60808201524281830152905133916000805160206122b3833981519152919081900360a00190a2505050565b6000826001600160a01b03168260405160006040518083038185875af1925050503d8060008114611c1f576040519150601f19603f3d011682016040523d82523d6000602084013e611c24565b606091505b5050905080611c3257600080fd5b505050565b6040518061016001604052806000815260200160006001600160a01b03168152602001606081526020016060815260200160608152602001600081526020016000815260200160008152602001600081526020016000815260200160006004811115611ca557611ca5611fef565b905290565b828054611cb69061221f565b90600052602060002090601f016020900481019282611cd85760008555611d1e565b82601f10611cf157805160ff1916838001178555611d1e565b82800160010185558215611d1e579182015b82811115611d1e578251825591602001919060010190611d03565b50611d2a929150611d2e565b5090565b5b80821115611d2a5760008155600101611d2f565b634e487b7160e01b600052604160045260246000fd5b600082601f830112611d6a57600080fd5b813567ffffffffffffffff80821115611d8557611d85611d43565b604051601f8301601f19908116603f01168101908282118183101715611dad57611dad611d43565b81604052838152866020858801011115611dc657600080fd5b836020870160208301376000602085830101528094505050505092915050565b600080600080600060a08688031215611dfe57600080fd5b853567ffffffffffffffff80821115611e1657600080fd5b611e2289838a01611d59565b96506020880135915080821115611e3857600080fd5b611e4489838a01611d59565b95506040880135915080821115611e5a57600080fd5b50611e6788828901611d59565b9598949750949560608101359550608001359392505050565b600060208284031215611e9257600080fd5b5035919050565b600080600080600060a08688031215611eb157600080fd5b85359450602086013567ffffffffffffffff80821115611ed057600080fd5b611edc89838a01611d59565b95506040880135915080821115611ef257600080fd5b611efe89838a01611d59565b94506060880135915080821115611f1457600080fd5b50611f2188828901611d59565b95989497509295608001359392505050565b602080825282518282018190526000919060409081850190868401855b82811015611f9557815180516001600160a01b031685528681015187860152858101518686015260609081015115159085015260809093019290850190600101611f50565b5091979650505050505050565b6000815180845260005b81811015611fc857602081850181015186830182015201611fac565b81811115611fda576000602083870101525b50601f01601f19169290920160200192915050565b634e487b7160e01b600052602160045260246000fd5b6005811061202357634e487b7160e01b600052602160045260246000fd5b9052565b600061016082518452602083015161204a60208601826001600160a01b03169052565b50604083015181604086015261206282860182611fa2565b9150506060830151848203606086015261207c8282611fa2565b915050608083015184820360808601526120968282611fa2565b91505060a083015160a085015260c083015160c085015260e083015160e0850152610100808401518186015250610120808401518186015250610140808401516120e282870182612005565b5090949350505050565b6000602080830181845280855180835260408601915060408160051b870101925083870160005b8281101561214157603f1988860301845261212f858351612027565b94509285019290850190600101612113565b5092979650505050505050565b6020815260006121616020830184612027565b9392505050565b634e487b7160e01b600052601160045260246000fd5b6000821982111561219157612191612168565b500190565b60006000198214156121aa576121aa612168565b5060010190565b602080825260119082015270141c9bda9958dd081b9bdd08199bdd5b99607a1b604082015260600190565b634e487b7160e01b600052603260045260246000fd5b602080825260139082015272556e617574686f72697a656420456e7469747960681b604082015260600190565b600181811c9082168061223357607f821691505b6020821081141561225457634e487b7160e01b600052602260045260246000fd5b50919050565b60008282101561226c5761226c612168565b500390565b600081600019048311821515161561228b5761228b612168565b500290565b6000826122ad57634e487b7160e01b600052601260045260246000fd5b50049056feaee8e5d3bbb2f71a951b5632cee20f7ac487b9f8ab4f66a236f7694b13af7c6aa26469706673582212208e2a55bde2e7d058511521b20b5c8cc7b2ea5f372914ddf7221d6fd9967634a164736f6c634300080b0033",
  "linkReferences": {},
  "deployedLinkReferences": {}
}