{
  "_format": "hh-sol-artifact-1",
  "contractName": "Genesis",
  "sourceName": "src/contracts/Genesis.sol",
  "abi": [
    {
      "inputs": [
        {
          "internalType": "uint256",
          "name": "_projectTax",
          "type": "uint256"
        }
      ],
      "stateMutability": "nonpayable",
      "type": "constructor"
    },
    {
      "anonymous": false,
      "inputs": [
        {
          "indexed": false,
          "internalType": "uint256",
          "name": "id",
          "type": "uint256"
        },
        {
          "indexed": false,
          "internalType": "string",
          "name": "actionType",
          "type": "string"
        },
        {
          "indexed": true,
          "internalType": "address",
          "name": "executor",
          "type": "address"
        },
        {
          "indexed": false,
          "internalType": "uint256",
          "name": "timestamp",
          "type": "uint256"
        }
      ],
      "name": "Action",
      "type": "event"
    },
    {
      "inputs": [],
      "name": "BACKING_PERIOD",
      "outputs": [
        {
          "internalType": "uint256",
          "name": "",
          "type": "uint256"
        }
      ],
      "stateMutability": "view",
      "type": "function"
    },
    {
      "inputs": [
        {
          "internalType": "uint256",
          "name": "id",
          "type": "uint256"
        }
      ],
      "name": "backProject",
      "outputs": [
        {
          "internalType": "bool",
          "name": "",
          "type": "bool"
        }
      ],
      "stateMutability": "payable",
      "type": "function"
    },
    {
      "inputs": [],
      "name": "balance",
      "outputs": [
        {
          "internalType": "uint256",
          "name": "",
          "type": "uint256"
        }
      ],
      "stateMutability": "view",
      "type": "function"
    },
    {
      "inputs": [
        {
          "internalType": "uint256",
          "name": "_days",
          "type": "uint256"
        }
      ],
      "name": "changePeriod",
      "outputs": [],
      "stateMutability": "nonpayable",
      "type": "function"
    },
    {
      "inputs": [
        {
          "internalType": "uint256",
          "name": "_taxPct",
          "type": "uint256"
        }
      ],
      "name": "changeTax",
      "outputs": [],
      "stateMutability": "nonpayable",
      "type": "function"
    },
    {
      "inputs": [
        {
          "internalType": "string",
          "name": "title",
          "type": "string"
        },
        {
          "internalType": "string",
          "name": "description",
          "type": "string"
        },
        {
          "internalType": "string",
          "name": "imageURL",
          "type": "string"
        },
        {
          "internalType": "uint256",
          "name": "cost",
          "type": "uint256"
        }
      ],
      "name": "createProject",
      "outputs": [
        {
          "internalType": "bool",
          "name": "",
          "type": "bool"
        }
      ],
      "stateMutability": "nonpayable",
      "type": "function"
    },
    {
      "inputs": [
        {
          "internalType": "uint256",
          "name": "id",
          "type": "uint256"
        }
      ],
      "name": "deleteProject",
      "outputs": [
        {
          "internalType": "bool",
          "name": "",
          "type": "bool"
        }
      ],
      "stateMutability": "nonpayable",
      "type": "function"
    },
    {
      "inputs": [
        {
          "internalType": "uint256",
          "name": "id",
          "type": "uint256"
        }
      ],
      "name": "getProject",
      "outputs": [
        {
          "components": [
            {
              "internalType": "uint256",
              "name": "id",
              "type": "uint256"
            },
            {
              "internalType": "address",
              "name": "owner",
              "type": "address"
            },
            {
              "internalType": "string",
              "name": "title",
              "type": "string"
            },
            {
              "internalType": "string",
              "name": "description",
              "type": "string"
            },
            {
              "internalType": "string",
              "name": "imageURL",
              "type": "string"
            },
            {
              "internalType": "uint256",
              "name": "cost",
              "type": "uint256"
            },
            {
              "internalType": "uint256",
              "name": "raised",
              "type": "uint256"
            },
            {
              "internalType": "uint256",
              "name": "timestamp",
              "type": "uint256"
            },
            {
              "internalType": "uint256",
              "name": "expiresAt",
              "type": "uint256"
            },
            {
              "internalType": "enum Genesis.statusEnum",
              "name": "status",
              "type": "uint8"
            }
          ],
          "internalType": "struct Genesis.projectStruct",
          "name": "",
          "type": "tuple"
        }
      ],
      "stateMutability": "view",
      "type": "function"
    },
    {
      "inputs": [],
      "name": "getProjects",
      "outputs": [
        {
          "components": [
            {
              "internalType": "uint256",
              "name": "id",
              "type": "uint256"
            },
            {
              "internalType": "address",
              "name": "owner",
              "type": "address"
            },
            {
              "internalType": "string",
              "name": "title",
              "type": "string"
            },
            {
              "internalType": "string",
              "name": "description",
              "type": "string"
            },
            {
              "internalType": "string",
              "name": "imageURL",
              "type": "string"
            },
            {
              "internalType": "uint256",
              "name": "cost",
              "type": "uint256"
            },
            {
              "internalType": "uint256",
              "name": "raised",
              "type": "uint256"
            },
            {
              "internalType": "uint256",
              "name": "timestamp",
              "type": "uint256"
            },
            {
              "internalType": "uint256",
              "name": "expiresAt",
              "type": "uint256"
            },
            {
              "internalType": "enum Genesis.statusEnum",
              "name": "status",
              "type": "uint8"
            }
          ],
          "internalType": "struct Genesis.projectStruct[]",
          "name": "",
          "type": "tuple[]"
        }
      ],
      "stateMutability": "view",
      "type": "function"
    },
    {
      "inputs": [],
      "name": "owner",
      "outputs": [
        {
          "internalType": "address",
          "name": "",
          "type": "address"
        }
      ],
      "stateMutability": "view",
      "type": "function"
    },
    {
      "inputs": [],
      "name": "projectCount",
      "outputs": [
        {
          "internalType": "uint256",
          "name": "",
          "type": "uint256"
        }
      ],
      "stateMutability": "view",
      "type": "function"
    },
    {
      "inputs": [
        {
          "internalType": "uint256",
          "name": "",
          "type": "uint256"
        }
      ],
      "name": "projectExist",
      "outputs": [
        {
          "internalType": "bool",
          "name": "",
          "type": "bool"
        }
      ],
      "stateMutability": "view",
      "type": "function"
    },
    {
      "inputs": [],
      "name": "projectTax",
      "outputs": [
        {
          "internalType": "uint256",
          "name": "",
          "type": "uint256"
        }
      ],
      "stateMutability": "view",
      "type": "function"
    },
    {
      "inputs": [
        {
          "internalType": "uint256",
          "name": "id",
          "type": "uint256"
        }
      ],
      "name": "requestRefund",
      "outputs": [
        {
          "internalType": "bool",
          "name": "",
          "type": "bool"
        }
      ],
      "stateMutability": "nonpayable",
      "type": "function"
    },
    {
      "inputs": [
        {
          "internalType": "uint256",
          "name": "id",
          "type": "uint256"
        },
        {
          "internalType": "string",
          "name": "title",
          "type": "string"
        },
        {
          "internalType": "string",
          "name": "description",
          "type": "string"
        },
        {
          "internalType": "string",
          "name": "imageURL",
          "type": "string"
        }
      ],
      "name": "updateProject",
      "outputs": [
        {
          "internalType": "bool",
          "name": "",
          "type": "bool"
        }
      ],
      "stateMutability": "nonpayable",
      "type": "function"
    }
  ],
  "bytecode": "0x608060405262093a8060035534801561001757600080fd5b5060405161207438038061207483398101604081905261003691610050565b600080546001600160a01b03191633179055600155610069565b60006020828403121561006257600080fd5b5051919050565b611ffc806100786000396000f3fe6080604052600436106100e85760003560e01c80638e142c681161008a578063b69ef8a811610059578063b69ef8a814610279578063d24cd3ec1461028f578063dcc60128146102a5578063f0f3f2c8146102c757600080fd5b80638e142c68146102105780639f39a19414610226578063a4b2409e14610239578063a4bf13611461025957600080fd5b80634cd0cb28116100c65780634cd0cb28146101685780638593054b146101885780638b9b3fd7146101b85780638da5cb5b146101d857600080fd5b80631ca73896146100ed57806336fbad26146101225780633e45c8af14610146575b600080fd5b3480156100f957600080fd5b5061010d610108366004611b94565b6102f4565b60405190151581526020015b60405180910390f35b34801561012e57600080fd5b5061013860025481565b604051908152602001610119565b34801561015257600080fd5b50610166610161366004611c24565b6106f5565b005b34801561017457600080fd5b5061010d610183366004611c24565b61074a565b34801561019457600080fd5b5061010d6101a3366004611c24565b60086020526000908152604090205460ff1681565b3480156101c457600080fd5b5061010d6101d3366004611c3d565b61093f565b3480156101e457600080fd5b506000546101f8906001600160a01b031681565b6040516001600160a01b039091168152602001610119565b34801561021c57600080fd5b5061013860035481565b61010d610234366004611c24565b610bcf565b34801561024557600080fd5b5061010d610254366004611c24565b610ef2565b34801561026557600080fd5b50610166610274366004611c24565b610ffe565b34801561028557600080fd5b5061013860045481565b34801561029b57600080fd5b5061013860015481565b3480156102b157600080fd5b506102ba611061565b6040516101199190611e0d565b3480156102d357600080fd5b506102e76102e2366004611c24565b6112f2565b6040516101199190611e6f565b6000808551116103435760405162461bcd60e51b81526020600482015260156024820152745469746c652063616e6e6f7420626520656d70747960581b60448201526064015b60405180910390fd5b60008451116103945760405162461bcd60e51b815260206004820152601b60248201527f4465736372697074696f6e2063616e6e6f7420626520656d7074790000000000604482015260640161033a565b60008351116103e05760405162461bcd60e51b8152602060048201526018602482015277496d61676555524c2063616e6e6f7420626520656d70747960401b604482015260640161033a565b6103e86119a2565b600254815233602082015260408101869052606081018590526080810184905260a081018390524260e0820181905260035461042391611e9f565b6101008201526005805460018101825560009190915281517f036b6384b5eca791c62761152d0c79bb0604c104a5fb6f4eb0703f3154bb3db0600a9092029182019081556020808401517f036b6384b5eca791c62761152d0c79bb0604c104a5fb6f4eb0703f3154bb3db1840180546001600160a01b0319166001600160a01b039092169190911790556040840151805185946104e6937f036b6384b5eca791c62761152d0c79bb0604c104a5fb6f4eb0703f3154bb3db2909101920190611a0e565b5060608201518051610502916003840191602090910190611a0e565b506080820151805161051e916004840191602090910190611a0e565b5060a0820151600582015560c0820151600682015560e08201516007820155610100820151600882015561012082015160098201805460ff1916600183600481111561056c5761056c611d1c565b0217905550506002805460009081526008602090815260408083208054600160ff1990911681179091553384526006835281842080548083018255908552938390208751600a909502019384558683015190840180546001600160a01b0319166001600160a01b03909216919091179055850151805186955092936105f993908501929190910190611a0e565b5060608201518051610615916003840191602090910190611a0e565b5060808201518051610631916004840191602090910190611a0e565b5060a0820151600582015560c0820151600682015560e08201516007820155610100820151600882015561012082015160098201805460ff1916600183600481111561067f5761067f611d1c565b02179055505060028054339250600080516020611fa78339815191529160006106a783611eb7565b9091555060408051918252606060208301819052600f908301526e141493d29150d50810d49150551151608a1b6080830152429082015260a00160405180910390a250600195945050505050565b6000546001600160a01b031633146107455760405162461bcd60e51b81526020600482015260136024820152724f776e6572207265736572766564206f6e6c7960681b604482015260640161033a565b600155565b60008181526008602052604081205460ff166107785760405162461bcd60e51b815260040161033a90611ed2565b60006005838154811061078d5761078d611efd565b600091825260209091206009600a90920201015460ff1660048111156107b5576107b5611d1c565b146107f75760405162461bcd60e51b8152602060048201526012602482015271141c9bda9958dd081b9bdd081bdc195b995960721b604482015260640161033a565b6005828154811061080a5761080a611efd565b60009182526020909120600a90910201600101546001600160a01b031633148061083e57506000546001600160a01b031633145b6108805760405162461bcd60e51b8152602060048201526013602482015272556e617574686f72697a656420456e7469747960681b604482015260640161033a565b60036005838154811061089557610895611efd565b600091825260209091206009600a9092020101805460ff191660018360048111156108c2576108c2611d1c565b021790555060008281526008602052604090819020805460ff19169055513390600080516020611fa78339815191529061092f9085904290918252606060208301819052600f908301526e141493d29150d50811115311551151608a1b6080830152604082015260a00190565b60405180910390a2506001919050565b60006005858154811061095457610954611efd565b60009182526020909120600a90910201600101546001600160a01b031633146109b55760405162461bcd60e51b8152602060048201526013602482015272556e617574686f72697a656420456e7469747960681b604482015260640161033a565b60008581526008602052604090205460ff166109e35760405162461bcd60e51b815260040161033a90611ed2565b6000845111610a2c5760405162461bcd60e51b81526020600482015260156024820152745469746c652063616e6e6f7420626520656d70747960581b604482015260640161033a565b6000835111610a7d5760405162461bcd60e51b815260206004820152601b60248201527f4465736372697074696f6e2063616e6e6f7420626520656d7074790000000000604482015260640161033a565b6000825111610ac95760405162461bcd60e51b8152602060048201526018602482015277496d61676555524c2063616e6e6f7420626520656d70747960401b604482015260640161033a565b8360058681548110610add57610add611efd565b90600052602060002090600a02016002019080519060200190610b01929190611a0e565b508260058681548110610b1657610b16611efd565b90600052602060002090600a02016003019080519060200190610b3a929190611a0e565b508160058681548110610b4f57610b4f611efd565b90600052602060002090600a02016004019080519060200190610b73929190611a0e565b5060408051868152606060208201819052600f908201526e141493d29150d50815541110551151608a1b6080820152428183015290513391600080516020611fa7833981519152919081900360a00190a2506001949350505050565b6000803411610c205760405162461bcd60e51b815260206004820152601f60248201527f4574686572206d7573742062652067726561746572207468616e207a65726f00604482015260640161033a565b60008281526008602052604090205460ff16610c4e5760405162461bcd60e51b815260040161033a90611ed2565b600060058381548110610c6357610c63611efd565b600091825260209091206009600a90920201015460ff166004811115610c8b57610c8b611d1c565b14610ccd5760405162461bcd60e51b8152602060048201526012602482015271141c9bda9958dd081b9bdd081bdc195b995960721b604482015260640161033a565b3460046000828254610cdf9190611e9f565b925050819055503460058381548110610cfa57610cfa611efd565b90600052602060002090600a02016006016000828254610d1a9190611e9f565b90915550506000828152600760209081526040808320815180830183523380825234828601908152835460018082018655948852968690209251600290970290920180546001600160a01b0319166001600160a01b039097169690961786559051949091019390935580518581526060928101839052600e928101929092526d141493d29150d508109050d2d15160921b60808301524290820152600080516020611fa78339815191529060a00160405180910390a260058281548110610de357610de3611efd565b90600052602060002090600a0201600801544210610e5357600260058381548110610e1057610e10611efd565b600091825260209091206009600a9092020101805460ff19166001836004811115610e3d57610e3d611d1c565b0217905550610e4b8261162f565b506001919050565b60058281548110610e6657610e66611efd565b90600052602060002090600a02016005015460058381548110610e8b57610e8b611efd565b90600052602060002090600a02016006015410610e4b57600160058381548110610eb757610eb7611efd565b600091825260209091206009600a9092020101805460ff19166001836004811115610ee457610ee4611d1c565b0217905550610e4b826117df565b600060058281548110610f0757610f07611efd565b90600052602060002090600a020160080154421015610f5e5760405162461bcd60e51b8152602060048201526013602482015272141c9bda9958dd081b9bdd08195e1c1a5c9959606a1b604482015260640161033a565b600460058381548110610f7357610f73611efd565b600091825260209091206009600a90920201015460ff166004811115610f9b57610f9b611d1c565b1415610fe95760405162461bcd60e51b815260206004820152601860248201527f50726f6a65637420616c726561647920726566756e6465640000000000000000604482015260640161033a565b600260058381548110610e1057610e10611efd565b6000546001600160a01b0316331461104e5760405162461bcd60e51b81526020600482015260136024820152724f776e6572207265736572766564206f6e6c7960681b604482015260640161033a565b61105b8162015180611f13565b60035550565b60606005805480602002602001604051908101604052809291908181526020016000905b828210156112e95760008481526020908190206040805161014081018252600a86029092018054835260018101546001600160a01b031693830193909352600283018054929392918401916110d990611f32565b80601f016020809104026020016040519081016040528092919081815260200182805461110590611f32565b80156111525780601f1061112757610100808354040283529160200191611152565b820191906000526020600020905b81548152906001019060200180831161113557829003601f168201915b5050505050815260200160038201805461116b90611f32565b80601f016020809104026020016040519081016040528092919081815260200182805461119790611f32565b80156111e45780601f106111b9576101008083540402835291602001916111e4565b820191906000526020600020905b8154815290600101906020018083116111c757829003601f168201915b505050505081526020016004820180546111fd90611f32565b80601f016020809104026020016040519081016040528092919081815260200182805461122990611f32565b80156112765780601f1061124b57610100808354040283529160200191611276565b820191906000526020600020905b81548152906001019060200180831161125957829003601f168201915b505050918352505060058201546020820152600682015460408201526007820154606082015260088201546080820152600982015460a09091019060ff1660048111156112c5576112c5611d1c565b60048111156112d6576112d6611d1c565b8152505081526020019060010190611085565b50505050905090565b6112fa6119a2565b60008281526008602052604090205460ff166113285760405162461bcd60e51b815260040161033a90611ed2565b60036005838154811061133d5761133d611efd565b600091825260209091206009600a90920201015460ff16600481111561136557611365611d1c565b14156113b35760405162461bcd60e51b815260206004820152601760248201527f50726f6a65637420616c72656164792064656c65746564000000000000000000604482015260640161033a565b600582815481106113c6576113c6611efd565b90600052602060002090600a020160405180610140016040529081600082015481526020016001820160009054906101000a90046001600160a01b03166001600160a01b03166001600160a01b0316815260200160028201805461142990611f32565b80601f016020809104026020016040519081016040528092919081815260200182805461145590611f32565b80156114a25780601f10611477576101008083540402835291602001916114a2565b820191906000526020600020905b81548152906001019060200180831161148557829003601f168201915b505050505081526020016003820180546114bb90611f32565b80601f01602080910402602001604051908101604052809291908181526020018280546114e790611f32565b80156115345780601f1061150957610100808354040283529160200191611534565b820191906000526020600020905b81548152906001019060200180831161151757829003601f168201915b5050505050815260200160048201805461154d90611f32565b80601f016020809104026020016040519081016040528092919081815260200182805461157990611f32565b80156115c65780601f1061159b576101008083540402835291602001916115c6565b820191906000526020600020905b8154815290600101906020018083116115a957829003601f168201915b505050918352505060058201546020820152600682015460408201526007820154606082015260088201546080820152600982015460a09091019060ff16600481111561161557611615611d1c565b600481111561162657611626611d1c565b90525092915050565b60026005828154811061164457611644611efd565b600091825260209091206009600a90920201015460ff16600481111561166c5761166c611d1c565b146116b95760405162461bcd60e51b815260206004820152601d60248201527f50726f6a656374206e6f74206d61726b656420666f7220726576657274000000604482015260640161033a565b60005b60008281526007602052604090205481101561177d5760008281526007602052604081208054839081106116f2576116f2611efd565b6000918252602080832060029092029091015485835260079091526040822080546001600160a01b039092169350908490811061173157611731611efd565b906000526020600020906002020160010154905061174f828261193d565b80600460008282546117619190611f6d565b925050819055505050808061177590611eb7565b9150506116bc565b50600081815260076020526040812061179591611a92565b6004600582815481106117aa576117aa611efd565b600091825260209091206009600a9092020101805460ff191660018360048111156117d7576117d7611d1c565b021790555050565b6001600582815481106117f4576117f4611efd565b600091825260209091206009600a90920201015460ff16600481111561181c5761181c611d1c565b146118605760405162461bcd60e51b8152602060048201526014602482015273141c9bda9958dd081b9bdd081054141493d5915160621b604482015260640161033a565b600060646001546005848154811061187a5761187a611efd565b90600052602060002090600a0201600601546118969190611f13565b6118a09190611f84565b905060006064600154836118b49190611f13565b6118be9190611f84565b90506118f9600584815481106118d6576118d6611efd565b600091825260209091206001600a9092020101546001600160a01b03168261193d565b600054611918906001600160a01b03166119138385611f6d565b61193d565b6119228183611f6d565b600460008282546119339190611f6d565b9091555050505050565b6000826001600160a01b03168260405160006040518083038185875af1925050503d806000811461198a576040519150601f19603f3d011682016040523d82523d6000602084013e61198f565b606091505b505090508061199d57600080fd5b505050565b6040518061014001604052806000815260200160006001600160a01b031681526020016060815260200160608152602001606081526020016000815260200160008152602001600081526020016000815260200160006004811115611a0957611a09611d1c565b905290565b828054611a1a90611f32565b90600052602060002090601f016020900481019282611a3c5760008555611a82565b82601f10611a5557805160ff1916838001178555611a82565b82800160010185558215611a82579182015b82811115611a82578251825591602001919060010190611a67565b50611a8e929150611ab6565b5090565b5080546000825560020290600052602060002090810190611ab39190611acb565b50565b5b80821115611a8e5760008155600101611ab7565b5b80821115611a8e5780546001600160a01b031916815560006001820155600201611acc565b634e487b7160e01b600052604160045260246000fd5b600082601f830112611b1857600080fd5b813567ffffffffffffffff80821115611b3357611b33611af1565b604051601f8301601f19908116603f01168101908282118183101715611b5b57611b5b611af1565b81604052838152866020858801011115611b7457600080fd5b836020870160208301376000602085830101528094505050505092915050565b60008060008060808587031215611baa57600080fd5b843567ffffffffffffffff80821115611bc257600080fd5b611bce88838901611b07565b95506020870135915080821115611be457600080fd5b611bf088838901611b07565b94506040870135915080821115611c0657600080fd5b50611c1387828801611b07565b949793965093946060013593505050565b600060208284031215611c3657600080fd5b5035919050565b60008060008060808587031215611c5357600080fd5b84359350602085013567ffffffffffffffff80821115611c7257600080fd5b611c7e88838901611b07565b94506040870135915080821115611c9457600080fd5b611ca088838901611b07565b93506060870135915080821115611cb657600080fd5b50611cc387828801611b07565b91505092959194509250565b6000815180845260005b81811015611cf557602081850181015186830182015201611cd9565b81811115611d07576000602083870101525b50601f01601f19169290920160200192915050565b634e487b7160e01b600052602160045260246000fd5b60058110611d5057634e487b7160e01b600052602160045260246000fd5b9052565b6000610140825184526020830151611d7760208601826001600160a01b03169052565b506040830151816040860152611d8f82860182611ccf565b91505060608301518482036060860152611da98282611ccf565b91505060808301518482036080860152611dc38282611ccf565b91505060a083015160a085015260c083015160c085015260e083015160e085015261010080840151818601525061012080840151611e0382870182611d32565b5090949350505050565b6000602080830181845280855180835260408601915060408160051b870101925083870160005b82811015611e6257603f19888603018452611e50858351611d54565b94509285019290850190600101611e34565b5092979650505050505050565b602081526000611e826020830184611d54565b9392505050565b634e487b7160e01b600052601160045260246000fd5b60008219821115611eb257611eb2611e89565b500190565b6000600019821415611ecb57611ecb611e89565b5060010190565b602080825260119082015270141c9bda9958dd081b9bdd08199bdd5b99607a1b604082015260600190565b634e487b7160e01b600052603260045260246000fd5b6000816000190483118215151615611f2d57611f2d611e89565b500290565b600181811c90821680611f4657607f821691505b60208210811415611f6757634e487b7160e01b600052602260045260246000fd5b50919050565b600082821015611f7f57611f7f611e89565b500390565b600082611fa157634e487b7160e01b600052601260045260246000fd5b50049056feaee8e5d3bbb2f71a951b5632cee20f7ac487b9f8ab4f66a236f7694b13af7c6aa26469706673582212209e806141ba8955c768218998117cbcf530d240c5fe47d84edba26a7219dc36b764736f6c634300080b0033",
  "linkReferences": {},
  "deployedLinkReferences": {}
}