{
  "_format": "hh-sol-artifact-1",
  "contractName": "Genesis",
  "sourceName": "src/contracts/Genesis.sol",
  "abi": [
    {
      "inputs": [
        {
          "internalType": "uint256",
          "name": "_projectTax",
          "type": "uint256"
        }
      ],
      "stateMutability": "nonpayable",
      "type": "constructor"
    },
    {
      "anonymous": false,
      "inputs": [
        {
          "indexed": false,
          "internalType": "uint256",
          "name": "id",
          "type": "uint256"
        },
        {
          "indexed": false,
          "internalType": "string",
          "name": "actionType",
          "type": "string"
        },
        {
          "indexed": true,
          "internalType": "address",
          "name": "executor",
          "type": "address"
        },
        {
          "indexed": false,
          "internalType": "uint256",
          "name": "timestamp",
          "type": "uint256"
        }
      ],
      "name": "Action",
      "type": "event"
    },
    {
      "inputs": [
        {
          "internalType": "uint256",
          "name": "id",
          "type": "uint256"
        }
      ],
      "name": "backProject",
      "outputs": [
        {
          "internalType": "bool",
          "name": "",
          "type": "bool"
        }
      ],
      "stateMutability": "payable",
      "type": "function"
    },
    {
      "inputs": [],
      "name": "balance",
      "outputs": [
        {
          "internalType": "uint256",
          "name": "",
          "type": "uint256"
        }
      ],
      "stateMutability": "view",
      "type": "function"
    },
    {
      "inputs": [
        {
          "internalType": "uint256",
          "name": "_taxPct",
          "type": "uint256"
        }
      ],
      "name": "changeTax",
      "outputs": [],
      "stateMutability": "nonpayable",
      "type": "function"
    },
    {
      "inputs": [
        {
          "internalType": "string",
          "name": "title",
          "type": "string"
        },
        {
          "internalType": "string",
          "name": "description",
          "type": "string"
        },
        {
          "internalType": "string",
          "name": "imageURL",
          "type": "string"
        },
        {
          "internalType": "uint256",
          "name": "cost",
          "type": "uint256"
        },
        {
          "internalType": "uint256",
          "name": "expiresAt",
          "type": "uint256"
        }
      ],
      "name": "createProject",
      "outputs": [
        {
          "internalType": "bool",
          "name": "",
          "type": "bool"
        }
      ],
      "stateMutability": "nonpayable",
      "type": "function"
    },
    {
      "inputs": [
        {
          "internalType": "uint256",
          "name": "id",
          "type": "uint256"
        }
      ],
      "name": "deleteProject",
      "outputs": [
        {
          "internalType": "bool",
          "name": "",
          "type": "bool"
        }
      ],
      "stateMutability": "nonpayable",
      "type": "function"
    },
    {
      "inputs": [
        {
          "internalType": "uint256",
          "name": "id",
          "type": "uint256"
        }
      ],
      "name": "getProject",
      "outputs": [
        {
          "components": [
            {
              "internalType": "uint256",
              "name": "id",
              "type": "uint256"
            },
            {
              "internalType": "address",
              "name": "owner",
              "type": "address"
            },
            {
              "internalType": "string",
              "name": "title",
              "type": "string"
            },
            {
              "internalType": "string",
              "name": "description",
              "type": "string"
            },
            {
              "internalType": "string",
              "name": "imageURL",
              "type": "string"
            },
            {
              "internalType": "uint256",
              "name": "cost",
              "type": "uint256"
            },
            {
              "internalType": "uint256",
              "name": "raised",
              "type": "uint256"
            },
            {
              "internalType": "uint256",
              "name": "timestamp",
              "type": "uint256"
            },
            {
              "internalType": "uint256",
              "name": "expiresAt",
              "type": "uint256"
            },
            {
              "internalType": "uint256",
              "name": "backers",
              "type": "uint256"
            },
            {
              "internalType": "enum Genesis.statusEnum",
              "name": "status",
              "type": "uint8"
            }
          ],
          "internalType": "struct Genesis.projectStruct",
          "name": "",
          "type": "tuple"
        }
      ],
      "stateMutability": "view",
      "type": "function"
    },
    {
      "inputs": [],
      "name": "getProjects",
      "outputs": [
        {
          "components": [
            {
              "internalType": "uint256",
              "name": "id",
              "type": "uint256"
            },
            {
              "internalType": "address",
              "name": "owner",
              "type": "address"
            },
            {
              "internalType": "string",
              "name": "title",
              "type": "string"
            },
            {
              "internalType": "string",
              "name": "description",
              "type": "string"
            },
            {
              "internalType": "string",
              "name": "imageURL",
              "type": "string"
            },
            {
              "internalType": "uint256",
              "name": "cost",
              "type": "uint256"
            },
            {
              "internalType": "uint256",
              "name": "raised",
              "type": "uint256"
            },
            {
              "internalType": "uint256",
              "name": "timestamp",
              "type": "uint256"
            },
            {
              "internalType": "uint256",
              "name": "expiresAt",
              "type": "uint256"
            },
            {
              "internalType": "uint256",
              "name": "backers",
              "type": "uint256"
            },
            {
              "internalType": "enum Genesis.statusEnum",
              "name": "status",
              "type": "uint8"
            }
          ],
          "internalType": "struct Genesis.projectStruct[]",
          "name": "",
          "type": "tuple[]"
        }
      ],
      "stateMutability": "view",
      "type": "function"
    },
    {
      "inputs": [],
      "name": "owner",
      "outputs": [
        {
          "internalType": "address",
          "name": "",
          "type": "address"
        }
      ],
      "stateMutability": "view",
      "type": "function"
    },
    {
      "inputs": [],
      "name": "projectCount",
      "outputs": [
        {
          "internalType": "uint256",
          "name": "",
          "type": "uint256"
        }
      ],
      "stateMutability": "view",
      "type": "function"
    },
    {
      "inputs": [
        {
          "internalType": "uint256",
          "name": "",
          "type": "uint256"
        }
      ],
      "name": "projectExist",
      "outputs": [
        {
          "internalType": "bool",
          "name": "",
          "type": "bool"
        }
      ],
      "stateMutability": "view",
      "type": "function"
    },
    {
      "inputs": [],
      "name": "projectTax",
      "outputs": [
        {
          "internalType": "uint256",
          "name": "",
          "type": "uint256"
        }
      ],
      "stateMutability": "view",
      "type": "function"
    },
    {
      "inputs": [
        {
          "internalType": "uint256",
          "name": "id",
          "type": "uint256"
        }
      ],
      "name": "requestRefund",
      "outputs": [
        {
          "internalType": "bool",
          "name": "",
          "type": "bool"
        }
      ],
      "stateMutability": "nonpayable",
      "type": "function"
    },
    {
      "inputs": [],
      "name": "stats",
      "outputs": [
        {
          "internalType": "uint256",
          "name": "totalProjects",
          "type": "uint256"
        },
        {
          "internalType": "uint256",
          "name": "totalBacking",
          "type": "uint256"
        },
        {
          "internalType": "uint256",
          "name": "totalDonations",
          "type": "uint256"
        }
      ],
      "stateMutability": "view",
      "type": "function"
    },
    {
      "inputs": [
        {
          "internalType": "uint256",
          "name": "id",
          "type": "uint256"
        },
        {
          "internalType": "string",
          "name": "title",
          "type": "string"
        },
        {
          "internalType": "string",
          "name": "description",
          "type": "string"
        },
        {
          "internalType": "string",
          "name": "imageURL",
          "type": "string"
        },
        {
          "internalType": "uint256",
          "name": "expiresAt",
          "type": "uint256"
        }
      ],
      "name": "updateProject",
      "outputs": [
        {
          "internalType": "bool",
          "name": "",
          "type": "bool"
        }
      ],
      "stateMutability": "nonpayable",
      "type": "function"
    }
  ],
  "bytecode": "0x608060405234801561001057600080fd5b5060405161210738038061210783398101604081905261002f91610049565b600080546001600160a01b03191633179055600155610062565b60006020828403121561005b57600080fd5b5051919050565b612096806100716000396000f3fe6080604052600436106100dd5760003560e01c80639f39a1941161007f578063d24cd3ec11610059578063d24cd3ec1461024e578063d80528ae14610264578063dcc601281461029e578063f0f3f2c8146102c057600080fd5b80639f39a19414610205578063a4b2409e14610218578063b69ef8a81461023857600080fd5b80634cd0cb28116100bb5780634cd0cb281461015d5780638593054b1461017d5780638da5cb5b146101ad5780639a3fa8c7146101e557600080fd5b8063056c29ee146100e257806336fbad26146101175780633e45c8af1461013b575b600080fd5b3480156100ee57600080fd5b506101026100fd366004611c10565b6102ed565b60405190151581526020015b60405180910390f35b34801561012357600080fd5b5061012d60025481565b60405190815260200161010e565b34801561014757600080fd5b5061015b610156366004611caa565b610710565b005b34801561016957600080fd5b50610102610178366004611caa565b610765565b34801561018957600080fd5b50610102610198366004611caa565b600a6020526000908152604090205460ff1681565b3480156101b957600080fd5b506000546101cd906001600160a01b031681565b6040516001600160a01b03909116815260200161010e565b3480156101f157600080fd5b50610102610200366004611cc3565b61095a565b610102610213366004611caa565b610c25565b34801561022457600080fd5b50610102610233366004611caa565b610fb6565b34801561024457600080fd5b5061012d60035481565b34801561025a57600080fd5b5061012d60015481565b34801561027057600080fd5b5060045460055460065461028392919083565b6040805193845260208401929092529082015260600161010e565b3480156102aa57600080fd5b506102b36110c2565b60405161010e9190611ea7565b3480156102cc57600080fd5b506102e06102db366004611caa565b61135d565b60405161010e9190611f09565b60008086511161033c5760405162461bcd60e51b81526020600482015260156024820152745469746c652063616e6e6f7420626520656d70747960581b60448201526064015b60405180910390fd5b600085511161038d5760405162461bcd60e51b815260206004820152601b60248201527f4465736372697074696f6e2063616e6e6f7420626520656d70747900000000006044820152606401610333565b60008451116103d95760405162461bcd60e51b8152602060048201526018602482015277496d61676555524c2063616e6e6f7420626520656d70747960401b6044820152606401610333565b6103e1611a17565b600254815233602080830191825260408301898152606084018990526080840188905260a084018790524260e085015261010084018690526007805460018101825560009190915284517fa66cc928b5edb82af9bd49922954155ab7b0942694bea4ce44661d9a8736c688600b90920291820190815593517fa66cc928b5edb82af9bd49922954155ab7b0942694bea4ce44661d9a8736c689820180546001600160a01b0319166001600160a01b03909216919091179055905180518594936104ce937fa66cc928b5edb82af9bd49922954155ab7b0942694bea4ce44661d9a8736c68a01920190611a8a565b50606082015180516104ea916003840191602090910190611a8a565b5060808201518051610506916004840191602090910190611a8a565b5060a0820151600582015560c0820151600682015560e0820151600782015561010082015160088201556101208201516009820155610140820151600a8201805460ff1916600183600481111561055f5761055f611daa565b021790555050600280546000908152600a602090815260408083208054600160ff1990911681179091553384526008835281842080548083018255908552938390208751600b909502019384558683015190840180546001600160a01b0319166001600160a01b03909216919091179055850151805186955092936105ec93908501929190910190611a8a565b5060608201518051610608916003840191602090910190611a8a565b5060808201518051610624916004840191602090910190611a8a565b5060a0820151600582015560c0820151600682015560e0820151600782015561010082015160088201556101208201516009820155610140820151600a8201805460ff1916600183600481111561067d5761067d611daa565b0217905550505060016004600001600082825461069a9190611f39565b9091555050600280543391600080516020612041833981519152919060006106c183611f51565b9091555060408051918252606060208301819052600f908301526e141493d29150d50810d49150551151608a1b6080830152429082015260a00160405180910390a25060019695505050505050565b6000546001600160a01b031633146107605760405162461bcd60e51b81526020600482015260136024820152724f776e6572207265736572766564206f6e6c7960681b6044820152606401610333565b600155565b6000818152600a602052604081205460ff166107935760405162461bcd60e51b815260040161033390611f6c565b6000600783815481106107a8576107a8611f97565b60009182526020909120600a600b90920201015460ff1660048111156107d0576107d0611daa565b146108125760405162461bcd60e51b8152602060048201526012602482015271141c9bda9958dd081b9bdd081bdc195b995960721b6044820152606401610333565b6007828154811061082557610825611f97565b60009182526020909120600b90910201600101546001600160a01b031633148061085957506000546001600160a01b031633145b61089b5760405162461bcd60e51b8152602060048201526013602482015272556e617574686f72697a656420456e7469747960681b6044820152606401610333565b6003600783815481106108b0576108b0611f97565b60009182526020909120600a600b9092020101805460ff191660018360048111156108dd576108dd611daa565b02179055506000828152600a602052604090819020805460ff191690555133906000805160206120418339815191529061094a9085904290918252606060208301819052600f908301526e141493d29150d50811115311551151608a1b6080830152604082015260a00190565b60405180910390a2506001919050565b60006007868154811061096f5761096f611f97565b60009182526020909120600b90910201600101546001600160a01b031633146109d05760405162461bcd60e51b8152602060048201526013602482015272556e617574686f72697a656420456e7469747960681b6044820152606401610333565b6000868152600a602052604090205460ff166109fe5760405162461bcd60e51b815260040161033390611f6c565b6000855111610a475760405162461bcd60e51b81526020600482015260156024820152745469746c652063616e6e6f7420626520656d70747960581b6044820152606401610333565b6000845111610a985760405162461bcd60e51b815260206004820152601b60248201527f4465736372697074696f6e2063616e6e6f7420626520656d70747900000000006044820152606401610333565b6000835111610ae45760405162461bcd60e51b8152602060048201526018602482015277496d61676555524c2063616e6e6f7420626520656d70747960401b6044820152606401610333565b8460078781548110610af857610af8611f97565b90600052602060002090600b02016002019080519060200190610b1c929190611a8a565b508360078781548110610b3157610b31611f97565b90600052602060002090600b02016003019080519060200190610b55929190611a8a565b508260078781548110610b6a57610b6a611f97565b90600052602060002090600b02016004019080519060200190610b8e929190611a8a565b508160078781548110610ba357610ba3611f97565b90600052602060002090600b020160080181905550336001600160a01b03166000805160206120418339815191528742604051610c11929190918252606060208301819052600f908301526e141493d29150d50815541110551151608a1b6080830152604082015260a00190565b60405180910390a250600195945050505050565b6000803411610c765760405162461bcd60e51b815260206004820152601f60248201527f4574686572206d7573742062652067726561746572207468616e207a65726f006044820152606401610333565b6000828152600a602052604090205460ff16610ca45760405162461bcd60e51b815260040161033390611f6c565b600060078381548110610cb957610cb9611f97565b60009182526020909120600a600b90920201015460ff166004811115610ce157610ce1611daa565b14610d235760405162461bcd60e51b8152602060048201526012602482015271141c9bda9958dd081b9bdd081bdc195b995960721b6044820152606401610333565b3460036000828254610d359190611f39565b925050819055503460078381548110610d5057610d50611f97565b90600052602060002090600b02016006016000828254610d709190611f39565b92505081905550600160078381548110610d8c57610d8c611f97565b90600052602060002090600b02016009016000828254610dac9190611f39565b909155505060008281526009602090815260408083208151808301909252338252348284019081528154600180820184559286529385209251600290940290920180546001600160a01b0319166001600160a01b039094169390931783559051918101919091556005805491929091610e26908490611f39565b909155505060068054349190600090610e40908490611f39565b909155505060408051838152606060208201819052600e908201526d141493d29150d508109050d2d15160921b6080820152428183015290513391600080516020612041833981519152919081900360a00190a260078281548110610ea757610ea7611f97565b90600052602060002090600b0201600801544210610f1757600260078381548110610ed457610ed4611f97565b60009182526020909120600a600b9092020101805460ff19166001836004811115610f0157610f01611daa565b0217905550610f0f826116a4565b506001919050565b60078281548110610f2a57610f2a611f97565b90600052602060002090600b02016005015460078381548110610f4f57610f4f611f97565b90600052602060002090600b02016006015410610f0f57600160078381548110610f7b57610f7b611f97565b60009182526020909120600a600b9092020101805460ff19166001836004811115610fa857610fa8611daa565b0217905550610f0f82611854565b600060078281548110610fcb57610fcb611f97565b90600052602060002090600b0201600801544210156110225760405162461bcd60e51b8152602060048201526013602482015272141c9bda9958dd081b9bdd08195e1c1a5c9959606a1b6044820152606401610333565b60046007838154811061103757611037611f97565b60009182526020909120600a600b90920201015460ff16600481111561105f5761105f611daa565b14156110ad5760405162461bcd60e51b815260206004820152601860248201527f50726f6a65637420616c726561647920726566756e64656400000000000000006044820152606401610333565b600260078381548110610ed457610ed4611f97565b60606007805480602002602001604051908101604052809291908181526020016000905b828210156113545760008481526020908190206040805161016081018252600b86029092018054835260018101546001600160a01b0316938301939093526002830180549293929184019161113a90611fad565b80601f016020809104026020016040519081016040528092919081815260200182805461116690611fad565b80156111b35780601f10611188576101008083540402835291602001916111b3565b820191906000526020600020905b81548152906001019060200180831161119657829003601f168201915b505050505081526020016003820180546111cc90611fad565b80601f01602080910402602001604051908101604052809291908181526020018280546111f890611fad565b80156112455780601f1061121a57610100808354040283529160200191611245565b820191906000526020600020905b81548152906001019060200180831161122857829003601f168201915b5050505050815260200160048201805461125e90611fad565b80601f016020809104026020016040519081016040528092919081815260200182805461128a90611fad565b80156112d75780601f106112ac576101008083540402835291602001916112d7565b820191906000526020600020905b8154815290600101906020018083116112ba57829003601f168201915b505050918352505060058201546020820152600682015460408201526007820154606082015260088201546080820152600982015460a0820152600a82015460c09091019060ff16600481111561133057611330611daa565b600481111561134157611341611daa565b81525050815260200190600101906110e6565b50505050905090565b611365611a17565b6000828152600a602052604090205460ff166113935760405162461bcd60e51b815260040161033390611f6c565b6003600783815481106113a8576113a8611f97565b60009182526020909120600a600b90920201015460ff1660048111156113d0576113d0611daa565b141561141e5760405162461bcd60e51b815260206004820152601760248201527f50726f6a65637420616c72656164792064656c657465640000000000000000006044820152606401610333565b6007828154811061143157611431611f97565b90600052602060002090600b020160405180610160016040529081600082015481526020016001820160009054906101000a90046001600160a01b03166001600160a01b03166001600160a01b0316815260200160028201805461149490611fad565b80601f01602080910402602001604051908101604052809291908181526020018280546114c090611fad565b801561150d5780601f106114e25761010080835404028352916020019161150d565b820191906000526020600020905b8154815290600101906020018083116114f057829003601f168201915b5050505050815260200160038201805461152690611fad565b80601f016020809104026020016040519081016040528092919081815260200182805461155290611fad565b801561159f5780601f106115745761010080835404028352916020019161159f565b820191906000526020600020905b81548152906001019060200180831161158257829003601f168201915b505050505081526020016004820180546115b890611fad565b80601f01602080910402602001604051908101604052809291908181526020018280546115e490611fad565b80156116315780601f1061160657610100808354040283529160200191611631565b820191906000526020600020905b81548152906001019060200180831161161457829003601f168201915b505050918352505060058201546020820152600682015460408201526007820154606082015260088201546080820152600982015460a0820152600a82015460c09091019060ff16600481111561168a5761168a611daa565b600481111561169b5761169b611daa565b90525092915050565b6002600782815481106116b9576116b9611f97565b60009182526020909120600a600b90920201015460ff1660048111156116e1576116e1611daa565b1461172e5760405162461bcd60e51b815260206004820152601d60248201527f50726f6a656374206e6f74206d61726b656420666f72207265766572740000006044820152606401610333565b60005b6000828152600960205260409020548110156117f257600082815260096020526040812080548390811061176757611767611f97565b6000918252602080832060029092029091015485835260099091526040822080546001600160a01b03909216935090849081106117a6576117a6611f97565b90600052602060002090600202016001015490506117c482826119b2565b80600360008282546117d69190611fe8565b92505081905550505080806117ea90611f51565b915050611731565b50600081815260096020526040812061180a91611b0e565b60046007828154811061181f5761181f611f97565b60009182526020909120600a600b9092020101805460ff1916600183600481111561184c5761184c611daa565b021790555050565b60016007828154811061186957611869611f97565b60009182526020909120600a600b90920201015460ff16600481111561189157611891611daa565b146118d55760405162461bcd60e51b8152602060048201526014602482015273141c9bda9958dd081b9bdd081054141493d5915160621b6044820152606401610333565b60006064600154600784815481106118ef576118ef611f97565b90600052602060002090600b02016006015461190b9190611fff565b611915919061201e565b905060006064600154836119299190611fff565b611933919061201e565b905061196e6007848154811061194b5761194b611f97565b600091825260209091206001600b9092020101546001600160a01b0316826119b2565b60005461198d906001600160a01b03166119888385611fe8565b6119b2565b6119978183611fe8565b600360008282546119a89190611fe8565b9091555050505050565b6000826001600160a01b03168260405160006040518083038185875af1925050503d80600081146119ff576040519150601f19603f3d011682016040523d82523d6000602084013e611a04565b606091505b5050905080611a1257600080fd5b505050565b6040518061016001604052806000815260200160006001600160a01b03168152602001606081526020016060815260200160608152602001600081526020016000815260200160008152602001600081526020016000815260200160006004811115611a8557611a85611daa565b905290565b828054611a9690611fad565b90600052602060002090601f016020900481019282611ab85760008555611afe565b82601f10611ad157805160ff1916838001178555611afe565b82800160010185558215611afe579182015b82811115611afe578251825591602001919060010190611ae3565b50611b0a929150611b32565b5090565b5080546000825560020290600052602060002090810190611b2f9190611b47565b50565b5b80821115611b0a5760008155600101611b33565b5b80821115611b0a5780546001600160a01b031916815560006001820155600201611b48565b634e487b7160e01b600052604160045260246000fd5b600082601f830112611b9457600080fd5b813567ffffffffffffffff80821115611baf57611baf611b6d565b604051601f8301601f19908116603f01168101908282118183101715611bd757611bd7611b6d565b81604052838152866020858801011115611bf057600080fd5b836020870160208301376000602085830101528094505050505092915050565b600080600080600060a08688031215611c2857600080fd5b853567ffffffffffffffff80821115611c4057600080fd5b611c4c89838a01611b83565b96506020880135915080821115611c6257600080fd5b611c6e89838a01611b83565b95506040880135915080821115611c8457600080fd5b50611c9188828901611b83565b9598949750949560608101359550608001359392505050565b600060208284031215611cbc57600080fd5b5035919050565b600080600080600060a08688031215611cdb57600080fd5b85359450602086013567ffffffffffffffff80821115611cfa57600080fd5b611d0689838a01611b83565b95506040880135915080821115611d1c57600080fd5b611d2889838a01611b83565b94506060880135915080821115611d3e57600080fd5b50611d4b88828901611b83565b95989497509295608001359392505050565b6000815180845260005b81811015611d8357602081850181015186830182015201611d67565b81811115611d95576000602083870101525b50601f01601f19169290920160200192915050565b634e487b7160e01b600052602160045260246000fd5b60058110611dde57634e487b7160e01b600052602160045260246000fd5b9052565b6000610160825184526020830151611e0560208601826001600160a01b03169052565b506040830151816040860152611e1d82860182611d5d565b91505060608301518482036060860152611e378282611d5d565b91505060808301518482036080860152611e518282611d5d565b91505060a083015160a085015260c083015160c085015260e083015160e085015261010080840151818601525061012080840151818601525061014080840151611e9d82870182611dc0565b5090949350505050565b6000602080830181845280855180835260408601915060408160051b870101925083870160005b82811015611efc57603f19888603018452611eea858351611de2565b94509285019290850190600101611ece565b5092979650505050505050565b602081526000611f1c6020830184611de2565b9392505050565b634e487b7160e01b600052601160045260246000fd5b60008219821115611f4c57611f4c611f23565b500190565b6000600019821415611f6557611f65611f23565b5060010190565b602080825260119082015270141c9bda9958dd081b9bdd08199bdd5b99607a1b604082015260600190565b634e487b7160e01b600052603260045260246000fd5b600181811c90821680611fc157607f821691505b60208210811415611fe257634e487b7160e01b600052602260045260246000fd5b50919050565b600082821015611ffa57611ffa611f23565b500390565b600081600019048311821515161561201957612019611f23565b500290565b60008261203b57634e487b7160e01b600052601260045260246000fd5b50049056feaee8e5d3bbb2f71a951b5632cee20f7ac487b9f8ab4f66a236f7694b13af7c6aa26469706673582212205233ceccb9c936b41a9dc61704be9840e4e520a39e375c6481fd3ff30bbcbbb064736f6c634300080b0033",
  "linkReferences": {},
  "deployedLinkReferences": {}
}